{
  "abi": [
    {
      "type": "constructor",
      "inputs": [
        {
          "name": "_messagePrize",
          "type": "uint256",
          "internalType": "uint256"
        },
        {
          "name": "_coeffIncrease",
          "type": "uint256",
          "internalType": "uint256"
        }
      ],
      "stateMutability": "nonpayable"
    },
    {
      "type": "function",
      "name": "PRECISION",
      "inputs": [],
      "outputs": [
        {
          "name": "",
          "type": "uint256",
          "internalType": "uint256"
        }
      ],
      "stateMutability": "view"
    },
    {
      "type": "function",
      "name": "adminAddress",
      "inputs": [],
      "outputs": [
        {
          "name": "",
          "type": "address",
          "internalType": "address"
        }
      ],
      "stateMutability": "view"
    },
    {
      "type": "function",
      "name": "aiAgentAddress",
      "inputs": [],
      "outputs": [
        {
          "name": "",
          "type": "address",
          "internalType": "address"
        }
      ],
      "stateMutability": "view"
    },
    {
      "type": "function",
      "name": "coeffIncrease",
      "inputs": [],
      "outputs": [
        {
          "name": "",
          "type": "uint256",
          "internalType": "uint256"
        }
      ],
      "stateMutability": "view"
    },
    {
      "type": "function",
      "name": "gameState",
      "inputs": [],
      "outputs": [
        {
          "name": "",
          "type": "uint8",
          "internalType": "enum AlephGameState.GameState"
        }
      ],
      "stateMutability": "view"
    },
    {
      "type": "function",
      "name": "getMessages",
      "inputs": [],
      "outputs": [
        {
          "name": "",
          "type": "tuple[]",
          "internalType": "struct AlephGameState.Message[]",
          "components": [
            {
              "name": "messagePrice",
              "type": "uint256",
              "internalType": "uint256"
            },
            {
              "name": "sender",
              "type": "address",
              "internalType": "address"
            },
            {
              "name": "content",
              "type": "string",
              "internalType": "string"
            },
            {
              "name": "timestamp",
              "type": "uint256",
              "internalType": "uint256"
            }
          ]
        }
      ],
      "stateMutability": "view"
    },
    {
      "type": "function",
      "name": "initGame",
      "inputs": [
        {
          "name": "_aiAgentAddress",
          "type": "address",
          "internalType": "address"
        }
      ],
      "outputs": [],
      "stateMutability": "nonpayable"
    },
    {
      "type": "function",
      "name": "messagePrize",
      "inputs": [],
      "outputs": [
        {
          "name": "",
          "type": "uint256",
          "internalType": "uint256"
        }
      ],
      "stateMutability": "view"
    },
    {
      "type": "function",
      "name": "messages",
      "inputs": [
        {
          "name": "",
          "type": "uint256",
          "internalType": "uint256"
        }
      ],
      "outputs": [
        {
          "name": "messagePrice",
          "type": "uint256",
          "internalType": "uint256"
        },
        {
          "name": "sender",
          "type": "address",
          "internalType": "address"
        },
        {
          "name": "content",
          "type": "string",
          "internalType": "string"
        },
        {
          "name": "timestamp",
          "type": "uint256",
          "internalType": "uint256"
        }
      ],
      "stateMutability": "view"
    },
    {
      "type": "function",
      "name": "payoutPrize",
      "inputs": [],
      "outputs": [],
      "stateMutability": "nonpayable"
    },
    {
      "type": "function",
      "name": "prizePool",
      "inputs": [],
      "outputs": [
        {
          "name": "",
          "type": "uint256",
          "internalType": "uint256"
        }
      ],
      "stateMutability": "view"
    },
    {
      "type": "function",
      "name": "reply",
      "inputs": [
        {
          "name": "_content",
          "type": "string",
          "internalType": "string"
        }
      ],
      "outputs": [],
      "stateMutability": "nonpayable"
    },
    {
      "type": "function",
      "name": "sendMessage",
      "inputs": [
        {
          "name": "_content",
          "type": "string",
          "internalType": "string"
        }
      ],
      "outputs": [],
      "stateMutability": "payable"
    },
    {
      "type": "event",
      "name": "AIAgentSetAddress",
      "inputs": [
        {
          "name": "aiAgent",
          "type": "address",
          "indexed": false,
          "internalType": "address"
        }
      ],
      "anonymous": false
    },
    {
      "type": "event",
      "name": "AgentReplied",
      "inputs": [
        {
          "name": "content",
          "type": "string",
          "indexed": false,
          "internalType": "string"
        },
        {
          "name": "timestamp",
          "type": "uint256",
          "indexed": false,
          "internalType": "uint256"
        }
      ],
      "anonymous": false
    },
    {
      "type": "event",
      "name": "MessageSent",
      "inputs": [
        {
          "name": "sender",
          "type": "address",
          "indexed": true,
          "internalType": "address"
        },
        {
          "name": "content",
          "type": "string",
          "indexed": false,
          "internalType": "string"
        },
        {
          "name": "timestamp",
          "type": "uint256",
          "indexed": false,
          "internalType": "uint256"
        }
      ],
      "anonymous": false
    },
    {
      "type": "event",
      "name": "PrizePayout",
      "inputs": [
        {
          "name": "winner",
          "type": "address",
          "indexed": false,
          "internalType": "address"
        },
        {
          "name": "amount",
          "type": "uint256",
          "indexed": false,
          "internalType": "uint256"
        }
      ],
      "anonymous": false
    }
  ],
  "bytecode": {
    "object": "0x608060405234801561000f575f5ffd5b50604051611e7b380380611e7b833981810160405281019061003191906100e6565b3360055f6101000a81548173ffffffffffffffffffffffffffffffffffffffff021916908373ffffffffffffffffffffffffffffffffffffffff160217905550816002819055508060038190555060035f5f6101000a81548160ff021916908360038111156100a3576100a2610124565b5b02179055505050610151565b5f5ffd5b5f819050919050565b6100c5816100b3565b81146100cf575f5ffd5b50565b5f815190506100e0816100bc565b92915050565b5f5f604083850312156100fc576100fb6100af565b5b5f610109858286016100d2565b925050602061011a858286016100d2565b9150509250929050565b7f4e487b71000000000000000000000000000000000000000000000000000000005f52602160045260245ffd5b611d1d8061015e5f395ff3fe6080604052600436106100c1575f3560e01c80636a5568be1161007e578063acce9c2411610058578063acce9c241461022e578063d1f9c24d14610258578063fb29d20a14610282578063fc6f9468146102ac576100c1565b80636a5568be146101b2578063719ce73e146101da578063aaf5eb6814610204576100c1565b80630d80fefd146100c557806313d25eda146101045780631a64907b1461011a578063469c8110146101445780635ebe7c72146101605780635ff6cbf314610188575b5f5ffd5b3480156100d0575f5ffd5b506100eb60048036038101906100e69190610f67565b6102d6565b6040516100fb9493929190611050565b60405180910390f35b34801561010f575f5ffd5b506101186103b6565b005b348015610125575f5ffd5b5061012e610787565b60405161013b919061109a565b60405180910390f35b61015e600480360381019061015991906111df565b61078d565b005b34801561016b575f5ffd5b50610186600480360381019061018191906111df565b6109d4565b005b348015610193575f5ffd5b5061019c610c2b565b6040516101a991906113a7565b60405180910390f35b3480156101bd575f5ffd5b506101d860048036038101906101d391906113f1565b610d7f565b005b3480156101e5575f5ffd5b506101ee610eb0565b6040516101fb919061109a565b60405180910390f35b34801561020f575f5ffd5b50610218610eb6565b604051610225919061109a565b60405180910390f35b348015610239575f5ffd5b50610242610ec2565b60405161024f919061109a565b60405180910390f35b348015610263575f5ffd5b5061026c610ec8565b604051610279919061148f565b60405180910390f35b34801561028d575f5ffd5b50610296610ed9565b6040516102a391906114a8565b60405180910390f35b3480156102b7575f5ffd5b506102c0610efe565b6040516102cd91906114a8565b60405180910390f35b600481815481106102e5575f80fd5b905f5260205f2090600402015f91509050805f015490806001015f9054906101000a900473ffffffffffffffffffffffffffffffffffffffff169080600201805461032f906114ee565b80601f016020809104026020016040519081016040528092919081815260200182805461035b906114ee565b80156103a65780601f1061037d576101008083540402835291602001916103a6565b820191905f5260205f20905b81548152906001019060200180831161038957829003601f168201915b5050505050908060030154905084565b60055f9054906101000a900473ffffffffffffffffffffffffffffffffffffffff1673ffffffffffffffffffffffffffffffffffffffff163373ffffffffffffffffffffffffffffffffffffffff1614610445576040517f08c379a000000000000000000000000000000000000000000000000000000000815260040161043c9061158e565b60405180910390fd5b5f60038111156104585761045761141c565b5b5f5f9054906101000a900460ff1660038111156104785761047761141c565b5b146104b8576040517f08c379a00000000000000000000000000000000000000000000000000000000081526004016104af906115f6565b60405180910390fd5b5f600480549050116104ff576040517f08c379a00000000000000000000000000000000000000000000000000000000081526004016104f69061165e565b60405180910390fd5b5f60065f9054906101000a900473ffffffffffffffffffffffffffffffffffffffff1673ffffffffffffffffffffffffffffffffffffffff166004600160048054905061054c91906116a9565b8154811061055d5761055c6116dc565b5b905f5260205f2090600402016001015f9054906101000a900473ffffffffffffffffffffffffffffffffffffffff1673ffffffffffffffffffffffffffffffffffffffff161480156105b457506001600480549050115b1561061457600460026004805490506105cd91906116a9565b815481106105de576105dd6116dc565b5b905f5260205f2090600402016001015f9054906101000a900473ffffffffffffffffffffffffffffffffffffffff16905061066b565b6004600160048054905061062891906116a9565b81548110610639576106386116dc565b5b905f5260205f2090600402016001015f9054906101000a900473ffffffffffffffffffffffffffffffffffffffff1690505b5f60015490505f60018190555060025f5f6101000a81548160ff0219169083600381111561069c5761069b61141c565b5b02179055505f8273ffffffffffffffffffffffffffffffffffffffff16826040516106c690611736565b5f6040518083038185875af1925050503d805f8114610700576040519150601f19603f3d011682016040523d82523d5f602084013e610705565b606091505b5050905080610749576040517f08c379a000000000000000000000000000000000000000000000000000000000815260040161074090611794565b60405180910390fd5b7f504d6fcd7fd6584455567b4c515b7efa2a27fb623104bd49f98b4e9a2ccd7efb838360405161077a9291906117b2565b60405180910390a1505050565b60025481565b600160038111156107a1576107a061141c565b5b5f5f9054906101000a900460ff1660038111156107c1576107c061141c565b5b14610801576040517f08c379a00000000000000000000000000000000000000000000000000000000081526004016107f890611823565b60405180910390fd5b600254341015610846576040517f08c379a000000000000000000000000000000000000000000000000000000000815260040161083d9061188b565b60405180910390fd5b6004604051806080016040528060025481526020013373ffffffffffffffffffffffffffffffffffffffff16815260200183815260200142815250908060018154018082558091505060019003905f5260205f2090600402015f909190919091505f820151815f01556020820151816001015f6101000a81548173ffffffffffffffffffffffffffffffffffffffff021916908373ffffffffffffffffffffffffffffffffffffffff160217905550604082015181600201908161090a9190611a49565b506060820151816003015550503460015f8282546109289190611b18565b92505081905550670de0b6b3a76400006003546002546109489190611b4b565b6109529190611bb9565b6002819055503373ffffffffffffffffffffffffffffffffffffffff167f4816bdd3b9d39acdd4da0ae7412d5523081e916c6a56e481063e475b86ef7c5b82426040516109a0929190611be9565b60405180910390a260015f5f6101000a81548160ff021916908360038111156109cc576109cb61141c565b5b021790555050565b60065f9054906101000a900473ffffffffffffffffffffffffffffffffffffffff1673ffffffffffffffffffffffffffffffffffffffff163373ffffffffffffffffffffffffffffffffffffffff1614610a63576040517f08c379a0000000000000000000000000000000000000000000000000000000008152600401610a5a90611c61565b60405180910390fd5b60016003811115610a7757610a7661141c565b5b5f5f9054906101000a900460ff166003811115610a9757610a9661141c565b5b14610ad7576040517f08c379a0000000000000000000000000000000000000000000000000000000008152600401610ace90611cc9565b60405180910390fd5b600460405180608001604052805f815260200160065f9054906101000a900473ffffffffffffffffffffffffffffffffffffffff1673ffffffffffffffffffffffffffffffffffffffff16815260200183815260200142815250908060018154018082558091505060019003905f5260205f2090600402015f909190919091505f820151815f01556020820151816001015f6101000a81548173ffffffffffffffffffffffffffffffffffffffff021916908373ffffffffffffffffffffffffffffffffffffffff1602179055506040820151816002019081610bba9190611a49565b506060820151816003015550505f5f5f6101000a81548160ff02191690836003811115610bea57610be961141c565b5b02179055507f5aa9063abb57f078ec42ba6732d0c8631e1cb79dba57ba9b74b76bc0658755b68142604051610c20929190611be9565b60405180910390a150565b60606004805480602002602001604051908101604052809291908181526020015f905b82821015610d76578382905f5260205f2090600402016040518060800160405290815f8201548152602001600182015f9054906101000a900473ffffffffffffffffffffffffffffffffffffffff1673ffffffffffffffffffffffffffffffffffffffff1673ffffffffffffffffffffffffffffffffffffffff168152602001600282018054610cdd906114ee565b80601f0160208091040260200160405190810160405280929190818152602001828054610d09906114ee565b8015610d545780601f10610d2b57610100808354040283529160200191610d54565b820191905f5260205f20905b815481529060010190602001808311610d3757829003601f168201915b5050505050815260200160038201548152505081526020019060010190610c4e565b50505050905090565b60055f9054906101000a900473ffffffffffffffffffffffffffffffffffffffff1673ffffffffffffffffffffffffffffffffffffffff163373ffffffffffffffffffffffffffffffffffffffff1614610e0e576040517f08c379a0000000000000000000000000000000000000000000000000000000008152600401610e059061158e565b60405180910390fd5b8060065f6101000a81548173ffffffffffffffffffffffffffffffffffffffff021916908373ffffffffffffffffffffffffffffffffffffffff1602179055507fcb3ed5b60a03dc79bfa565ea813bd93572e94f8666e5b22f643b39d2e5f0293081604051610e7d91906114a8565b60405180910390a15f5f5f6101000a81548160ff02191690836003811115610ea857610ea761141c565b5b021790555050565b60015481565b670de0b6b3a764000081565b60035481565b5f5f9054906101000a900460ff1681565b60065f9054906101000a900473ffffffffffffffffffffffffffffffffffffffff1681565b60055f9054906101000a900473ffffffffffffffffffffffffffffffffffffffff1681565b5f604051905090565b5f5ffd5b5f5ffd5b5f819050919050565b610f4681610f34565b8114610f50575f5ffd5b50565b5f81359050610f6181610f3d565b92915050565b5f60208284031215610f7c57610f7b610f2c565b5b5f610f8984828501610f53565b91505092915050565b610f9b81610f34565b82525050565b5f73ffffffffffffffffffffffffffffffffffffffff82169050919050565b5f610fca82610fa1565b9050919050565b610fda81610fc0565b82525050565b5f81519050919050565b5f82825260208201905092915050565b8281835e5f83830152505050565b5f601f19601f8301169050919050565b5f61102282610fe0565b61102c8185610fea565b935061103c818560208601610ffa565b61104581611008565b840191505092915050565b5f6080820190506110635f830187610f92565b6110706020830186610fd1565b81810360408301526110828185611018565b90506110916060830184610f92565b95945050505050565b5f6020820190506110ad5f830184610f92565b92915050565b5f5ffd5b5f5ffd5b7f4e487b71000000000000000000000000000000000000000000000000000000005f52604160045260245ffd5b6110f182611008565b810181811067ffffffffffffffff821117156111105761110f6110bb565b5b80604052505050565b5f611122610f23565b905061112e82826110e8565b919050565b5f67ffffffffffffffff82111561114d5761114c6110bb565b5b61115682611008565b9050602081019050919050565b828183375f83830152505050565b5f61118361117e84611133565b611119565b90508281526020810184848401111561119f5761119e6110b7565b5b6111aa848285611163565b509392505050565b5f82601f8301126111c6576111c56110b3565b5b81356111d6848260208601611171565b91505092915050565b5f602082840312156111f4576111f3610f2c565b5b5f82013567ffffffffffffffff81111561121157611210610f30565b5b61121d848285016111b2565b91505092915050565b5f81519050919050565b5f82825260208201905092915050565b5f819050602082019050919050565b61125881610f34565b82525050565b61126781610fc0565b82525050565b5f82825260208201905092915050565b5f61128782610fe0565b611291818561126d565b93506112a1818560208601610ffa565b6112aa81611008565b840191505092915050565b5f608083015f8301516112ca5f86018261124f565b5060208301516112dd602086018261125e565b50604083015184820360408601526112f5828261127d565b915050606083015161130a606086018261124f565b508091505092915050565b5f61132083836112b5565b905092915050565b5f602082019050919050565b5f61133e82611226565b6113488185611230565b93508360208202850161135a85611240565b805f5b8581101561139557848403895281516113768582611315565b945061138183611328565b925060208a0199505060018101905061135d565b50829750879550505050505092915050565b5f6020820190508181035f8301526113bf8184611334565b905092915050565b6113d081610fc0565b81146113da575f5ffd5b50565b5f813590506113eb816113c7565b92915050565b5f6020828403121561140657611405610f2c565b5b5f611413848285016113dd565b91505092915050565b7f4e487b71000000000000000000000000000000000000000000000000000000005f52602160045260245ffd5b6004811061145a5761145961141c565b5b50565b5f81905061146a82611449565b919050565b5f6114798261145d565b9050919050565b6114898161146f565b82525050565b5f6020820190506114a25f830184611480565b92915050565b5f6020820190506114bb5f830184610fd1565b92915050565b7f4e487b71000000000000000000000000000000000000000000000000000000005f52602260045260245ffd5b5f600282049050600182168061150557607f821691505b602082108103611518576115176114c1565b5b50919050565b7f4f6e6c792061646d696e2063616e2063616c6c20746869732066756e6374696f5f8201527f6e00000000000000000000000000000000000000000000000000000000000000602082015250565b5f611578602183610fea565b91506115838261151e565b604082019050919050565b5f6020820190508181035f8301526115a58161156c565b9050919050565b7f47616d65206973206e6f742070656e64696e67207061796f75740000000000005f82015250565b5f6115e0601a83610fea565b91506115eb826115ac565b602082019050919050565b5f6020820190508181035f83015261160d816115d4565b9050919050565b7f4e6f206d6573736167657320617661696c61626c6500000000000000000000005f82015250565b5f611648601583610fea565b915061165382611614565b602082019050919050565b5f6020820190508181035f8301526116758161163c565b9050919050565b7f4e487b71000000000000000000000000000000000000000000000000000000005f52601160045260245ffd5b5f6116b382610f34565b91506116be83610f34565b92508282039050818111156116d6576116d561167c565b5b92915050565b7f4e487b71000000000000000000000000000000000000000000000000000000005f52603260045260245ffd5b5f81905092915050565b50565b5f6117215f83611709565b915061172c82611713565b5f82019050919050565b5f61174082611716565b9150819050919050565b7f5472616e73666572206661696c656400000000000000000000000000000000005f82015250565b5f61177e600f83610fea565b91506117898261174a565b602082019050919050565b5f6020820190508181035f8301526117ab81611772565b9050919050565b5f6040820190506117c55f830185610fd1565b6117d26020830184610f92565b9392505050565b7f47616d65206973206e6f742061637469766500000000000000000000000000005f82015250565b5f61180d601283610fea565b9150611818826117d9565b602082019050919050565b5f6020820190508181035f83015261183a81611801565b9050919050565b7f496e73756666696369656e742066756e647320666f72206d65737361676500005f82015250565b5f611875601e83610fea565b915061188082611841565b602082019050919050565b5f6020820190508181035f8301526118a281611869565b9050919050565b5f819050815f5260205f209050919050565b5f6020601f8301049050919050565b5f82821b905092915050565b5f600883026119057fffffffffffffffffffffffffffffffffffffffffffffffffffffffffffffffff826118ca565b61190f86836118ca565b95508019841693508086168417925050509392505050565b5f819050919050565b5f61194a61194561194084610f34565b611927565b610f34565b9050919050565b5f819050919050565b61196383611930565b61197761196f82611951565b8484546118d6565b825550505050565b5f5f905090565b61198e61197f565b61199981848461195a565b505050565b5b818110156119bc576119b15f82611986565b60018101905061199f565b5050565b601f821115611a01576119d2816118a9565b6119db846118bb565b810160208510156119ea578190505b6119fe6119f6856118bb565b83018261199e565b50505b505050565b5f82821c905092915050565b5f611a215f1984600802611a06565b1980831691505092915050565b5f611a398383611a12565b9150826002028217905092915050565b611a5282610fe0565b67ffffffffffffffff811115611a6b57611a6a6110bb565b5b611a7582546114ee565b611a808282856119c0565b5f60209050601f831160018114611ab1575f8415611a9f578287015190505b611aa98582611a2e565b865550611b10565b601f198416611abf866118a9565b5f5b82811015611ae657848901518255600182019150602085019450602081019050611ac1565b86831015611b035784890151611aff601f891682611a12565b8355505b6001600288020188555050505b505050505050565b5f611b2282610f34565b9150611b2d83610f34565b9250828201905080821115611b4557611b4461167c565b5b92915050565b5f611b5582610f34565b9150611b6083610f34565b9250828202611b6e81610f34565b91508282048414831517611b8557611b8461167c565b5b5092915050565b7f4e487b71000000000000000000000000000000000000000000000000000000005f52601260045260245ffd5b5f611bc382610f34565b9150611bce83610f34565b925082611bde57611bdd611b8c565b5b828204905092915050565b5f6040820190508181035f830152611c018185611018565b9050611c106020830184610f92565b9392505050565b7f4f6e6c79204149206167656e742063616e207265706c790000000000000000005f82015250565b5f611c4b601783610fea565b9150611c5682611c17565b602082019050919050565b5f6020820190508181035f830152611c7881611c3f565b9050919050565b7f47616d65206973206e6f7420696e20676f696e672073746174650000000000005f82015250565b5f611cb3601a83610fea565b9150611cbe82611c7f565b602082019050919050565b5f6020820190508181035f830152611ce081611ca7565b905091905056fea2646970667358221220e05b03aaf3dd1062bec70967c2227aaebc43bd50f7b26931e275d08357b22d1964736f6c634300081c0033",
    "linkReferences": {}
  },
  "methodIdentifiers": {
    "PRECISION()": "aaf5eb68",
    "adminAddress()": "fc6f9468",
    "aiAgentAddress()": "fb29d20a",
    "coeffIncrease()": "acce9c24",
    "gameState()": "d1f9c24d",
    "getMessages()": "5ff6cbf3",
    "initGame(address)": "6a5568be",
    "messagePrize()": "1a64907b",
    "messages(uint256)": "0d80fefd",
    "payoutPrize()": "13d25eda",
    "prizePool()": "719ce73e",
    "reply(string)": "5ebe7c72",
    "sendMessage(string)": "469c8110"
  },
  "id": 0
}